{
  "contracts/MerkleAirdrop.sol": {
    "MerkleAirdrop": {
      "abi": [
        {
          "inputs": [
            {
              "internalType": "bytes32",
              "name": "_merkleRoot",
              "type": "bytes32"
            },
            {
              "internalType": "address",
              "name": "_tokenAddress",
              "type": "address"
            }
          ],
          "stateMutability": "nonpayable",
          "type": "constructor"
        },
        {
          "anonymous": false,
          "inputs": [
            {
              "indexed": true,
              "internalType": "address",
              "name": "claimant",
              "type": "address"
            },
            {
              "indexed": false,
              "internalType": "uint256",
              "name": "index",
              "type": "uint256"
            },
            {
              "indexed": false,
              "internalType": "uint256",
              "name": "amount",
              "type": "uint256"
            }
          ],
          "name": "AirdropClaimed",
          "type": "event"
        },
        {
          "inputs": [],
          "name": "airdropToken",
          "outputs": [
            {
              "internalType": "address",
              "name": "",
              "type": "address"
            }
          ],
          "stateMutability": "view",
          "type": "function"
        },
        {
          "inputs": [
            {
              "internalType": "bytes32[]",
              "name": "proof",
              "type": "bytes32[]"
            },
            {
              "internalType": "uint256",
              "name": "index",
              "type": "uint256"
            },
            {
              "internalType": "uint256",
              "name": "amount",
              "type": "uint256"
            }
          ],
          "name": "claimAirDrop",
          "outputs": [],
          "stateMutability": "nonpayable",
          "type": "function"
        },
        {
          "inputs": [],
          "name": "merkleRoot",
          "outputs": [
            {
              "internalType": "bytes32",
              "name": "",
              "type": "bytes32"
            }
          ],
          "stateMutability": "view",
          "type": "function"
        },
        {
          "inputs": [],
          "name": "owner",
          "outputs": [
            {
              "internalType": "address",
              "name": "",
              "type": "address"
            }
          ],
          "stateMutability": "view",
          "type": "function"
        }
      ],
      "evm": {
        "bytecode": {
          "linkReferences": {},
          "object": "60a060405234801561001057600080fd5b50604051610bba380380610bba8339818101604052810190610032919061015b565b336000806101000a81548173ffffffffffffffffffffffffffffffffffffffff021916908373ffffffffffffffffffffffffffffffffffffffff160217905550816080818152505080600260006101000a81548173ffffffffffffffffffffffffffffffffffffffff021916908373ffffffffffffffffffffffffffffffffffffffff160217905550505061019b565b600080fd5b6000819050919050565b6100da816100c7565b81146100e557600080fd5b50565b6000815190506100f7816100d1565b92915050565b600073ffffffffffffffffffffffffffffffffffffffff82169050919050565b6000610128826100fd565b9050919050565b6101388161011d565b811461014357600080fd5b50565b6000815190506101558161012f565b92915050565b60008060408385031215610172576101716100c2565b5b6000610180858286016100e8565b925050602061019185828601610146565b9150509250929050565b6080516109fe6101bc6000396000818160c901526103ac01526109fe6000f3fe608060405234801561001057600080fd5b506004361061004c5760003560e01c80632eb4a7ab146100515780634d06068a1461006f5780638da5cb5b1461008d578063e7e52036146100ab575b600080fd5b6100596100c7565b604051610066919061057b565b60405180910390f35b6100776100eb565b60405161008491906105d7565b60405180910390f35b610095610111565b6040516100a291906105d7565b60405180910390f35b6100c560048036038101906100c09190610697565b610135565b005b7f000000000000000000000000000000000000000000000000000000000000000081565b600260009054906101000a900473ffffffffffffffffffffffffffffffffffffffff1681565b60008054906101000a900473ffffffffffffffffffffffffffffffffffffffff1681565b610140600183610315565b15610180576040517f08c379a000000000000000000000000000000000000000000000000000000000815260040161017790610768565b60405180910390fd5b6101cd848480806020026020016040519081016040528093929190818152602001838360200280828437600081840152601f19601f82011690508083019250505050505050838333610351565b6101da6001836001610417565b6000600260009054906101000a900473ffffffffffffffffffffffffffffffffffffffff1673ffffffffffffffffffffffffffffffffffffffff1663a9059cbb33846040518363ffffffff1660e01b8152600401610239929190610797565b6020604051808303816000875af1158015610258573d6000803e3d6000fd5b505050506040513d601f19601f8201168201806040525081019061027c91906107f8565b9050806102be576040517f08c379a00000000000000000000000000000000000000000000000000000000081526004016102b590610871565b60405180910390fd5b3373ffffffffffffffffffffffffffffffffffffffff167fd0755a9ef5a74f50d34b3503bb5b65ad71a112c001b76dfa6412c9aa4a1f43b08484604051610306929190610891565b60405180910390a25050505050565b600080600883901c9050600060ff84166001901b9050600081866000016000858152602001908152602001600020541614159250505092915050565b6000818484604051602001610368939291906108ba565b6040516020818303038152906040528051906020012060405160200161038e9190610912565b6040516020818303038152906040528051906020012090506103d1857f00000000000000000000000000000000000000000000000000000000000000008361043c565b610410576040517f08c379a000000000000000000000000000000000000000000000000000000000815260040161040790610979565b60405180910390fd5b5050505050565b801561042c576104278383610453565b610437565b6104368383610491565b5b505050565b60008261044985846104d0565b1490509392505050565b6000600882901c9050600060ff83166001901b9050808460000160008481526020019081526020016000206000828254179250508190555050505050565b6000600882901c9050600060ff83166001901b905080198460000160008481526020019081526020016000206000828254169250508190555050505050565b60008082905060005b845181101561051557610506828683815181106104f9576104f8610999565b5b6020026020010151610520565b915080806001019150506104d9565b508091505092915050565b600081831061053857610533828461054b565b610543565b610542838361054b565b5b905092915050565b600082600052816020526040600020905092915050565b6000819050919050565b61057581610562565b82525050565b6000602082019050610590600083018461056c565b92915050565b600073ffffffffffffffffffffffffffffffffffffffff82169050919050565b60006105c182610596565b9050919050565b6105d1816105b6565b82525050565b60006020820190506105ec60008301846105c8565b92915050565b600080fd5b600080fd5b600080fd5b600080fd5b600080fd5b60008083601f840112610621576106206105fc565b5b8235905067ffffffffffffffff81111561063e5761063d610601565b5b60208301915083602082028301111561065a57610659610606565b5b9250929050565b6000819050919050565b61067481610661565b811461067f57600080fd5b50565b6000813590506106918161066b565b92915050565b600080600080606085870312156106b1576106b06105f2565b5b600085013567ffffffffffffffff8111156106cf576106ce6105f7565b5b6106db8782880161060b565b945094505060206106ee87828801610682565b92505060406106ff87828801610682565b91505092959194509250565b600082825260208201905092915050565b7f416c726561647920636c61696d65640000000000000000000000000000000000600082015250565b6000610752600f8361070b565b915061075d8261071c565b602082019050919050565b6000602082019050818103600083015261078181610745565b9050919050565b61079181610661565b82525050565b60006040820190506107ac60008301856105c8565b6107b96020830184610788565b9392505050565b60008115159050919050565b6107d5816107c0565b81146107e057600080fd5b50565b6000815190506107f2816107cc565b92915050565b60006020828403121561080e5761080d6105f2565b5b600061081c848285016107e3565b91505092915050565b7f546f6b656e207472616e73666572206661696c65640000000000000000000000600082015250565b600061085b60158361070b565b915061086682610825565b602082019050919050565b6000602082019050818103600083015261088a8161084e565b9050919050565b60006040820190506108a66000830185610788565b6108b36020830184610788565b9392505050565b60006060820190506108cf60008301866105c8565b6108dc6020830185610788565b6108e96040830184610788565b949350505050565b6000819050919050565b61090c61090782610562565b6108f1565b82525050565b600061091e82846108fb565b60208201915081905092915050565b7f496e76616c69642070726f6f6600000000000000000000000000000000000000600082015250565b6000610963600d8361070b565b915061096e8261092d565b602082019050919050565b6000602082019050818103600083015261099281610956565b9050919050565b7f4e487b7100000000000000000000000000000000000000000000000000000000600052603260045260246000fdfea264697066735822122044857b4f303990dbdd603ab5fa7acc5d8307ad39f471407b22f05381cf8a02fd64736f6c63430008180033",
          "opcodes": "PUSH1 0xA0 PUSH1 0x40 MSTORE CALLVALUE DUP1 ISZERO PUSH2 0x10 JUMPI PUSH1 0x0 DUP1 REVERT JUMPDEST POP PUSH1 0x40 MLOAD PUSH2 0xBBA CODESIZE SUB DUP1 PUSH2 0xBBA DUP4 CODECOPY DUP2 DUP2 ADD PUSH1 0x40 MSTORE DUP2 ADD SWAP1 PUSH2 0x32 SWAP2 SWAP1 PUSH2 0x15B JUMP JUMPDEST CALLER PUSH1 0x0 DUP1 PUSH2 0x100 EXP DUP2 SLOAD DUP2 PUSH20 0xFFFFFFFFFFFFFFFFFFFFFFFFFFFFFFFFFFFFFFFF MUL NOT AND SWAP1 DUP4 PUSH20 0xFFFFFFFFFFFFFFFFFFFFFFFFFFFFFFFFFFFFFFFF AND MUL OR SWAP1 SSTORE POP DUP2 PUSH1 0x80 DUP2 DUP2 MSTORE POP POP DUP1 PUSH1 0x2 PUSH1 0x0 PUSH2 0x100 EXP DUP2 SLOAD DUP2 PUSH20 0xFFFFFFFFFFFFFFFFFFFFFFFFFFFFFFFFFFFFFFFF MUL NOT AND SWAP1 DUP4 PUSH20 0xFFFFFFFFFFFFFFFFFFFFFFFFFFFFFFFFFFFFFFFF AND MUL OR SWAP1 SSTORE POP POP POP PUSH2 0x19B JUMP JUMPDEST PUSH1 0x0 DUP1 REVERT JUMPDEST PUSH1 0x0 DUP2 SWAP1 POP SWAP2 SWAP1 POP JUMP JUMPDEST PUSH2 0xDA DUP2 PUSH2 0xC7 JUMP JUMPDEST DUP2 EQ PUSH2 0xE5 JUMPI PUSH1 0x0 DUP1 REVERT JUMPDEST POP JUMP JUMPDEST PUSH1 0x0 DUP2 MLOAD SWAP1 POP PUSH2 0xF7 DUP2 PUSH2 0xD1 JUMP JUMPDEST SWAP3 SWAP2 POP POP JUMP JUMPDEST PUSH1 0x0 PUSH20 0xFFFFFFFFFFFFFFFFFFFFFFFFFFFFFFFFFFFFFFFF DUP3 AND SWAP1 POP SWAP2 SWAP1 POP JUMP JUMPDEST PUSH1 0x0 PUSH2 0x128 DUP3 PUSH2 0xFD JUMP JUMPDEST SWAP1 POP SWAP2 SWAP1 POP JUMP JUMPDEST PUSH2 0x138 DUP2 PUSH2 0x11D JUMP JUMPDEST DUP2 EQ PUSH2 0x143 JUMPI PUSH1 0x0 DUP1 REVERT JUMPDEST POP JUMP JUMPDEST PUSH1 0x0 DUP2 MLOAD SWAP1 POP PUSH2 0x155 DUP2 PUSH2 0x12F JUMP JUMPDEST SWAP3 SWAP2 POP POP JUMP JUMPDEST PUSH1 0x0 DUP1 PUSH1 0x40 DUP4 DUP6 SUB SLT ISZERO PUSH2 0x172 JUMPI PUSH2 0x171 PUSH2 0xC2 JUMP JUMPDEST JUMPDEST PUSH1 0x0 PUSH2 0x180 DUP6 DUP3 DUP7 ADD PUSH2 0xE8 JUMP JUMPDEST SWAP3 POP POP PUSH1 0x20 PUSH2 0x191 DUP6 DUP3 DUP7 ADD PUSH2 0x146 JUMP JUMPDEST SWAP2 POP POP SWAP3 POP SWAP3 SWAP1 POP JUMP JUMPDEST PUSH1 0x80 MLOAD PUSH2 0x9FE PUSH2 0x1BC PUSH1 0x0 CODECOPY PUSH1 0x0 DUP2 DUP2 PUSH1 0xC9 ADD MSTORE PUSH2 0x3AC ADD MSTORE PUSH2 0x9FE PUSH1 0x0 RETURN INVALID PUSH1 0x80 PUSH1 0x40 MSTORE CALLVALUE DUP1 ISZERO PUSH2 0x10 JUMPI PUSH1 0x0 DUP1 REVERT JUMPDEST POP PUSH1 0x4 CALLDATASIZE LT PUSH2 0x4C JUMPI PUSH1 0x0 CALLDATALOAD PUSH1 0xE0 SHR DUP1 PUSH4 0x2EB4A7AB EQ PUSH2 0x51 JUMPI DUP1 PUSH4 0x4D06068A EQ PUSH2 0x6F JUMPI DUP1 PUSH4 0x8DA5CB5B EQ PUSH2 0x8D JUMPI DUP1 PUSH4 0xE7E52036 EQ PUSH2 0xAB JUMPI JUMPDEST PUSH1 0x0 DUP1 REVERT JUMPDEST PUSH2 0x59 PUSH2 0xC7 JUMP JUMPDEST PUSH1 0x40 MLOAD PUSH2 0x66 SWAP2 SWAP1 PUSH2 0x57B JUMP JUMPDEST PUSH1 0x40 MLOAD DUP1 SWAP2 SUB SWAP1 RETURN JUMPDEST PUSH2 0x77 PUSH2 0xEB JUMP JUMPDEST PUSH1 0x40 MLOAD PUSH2 0x84 SWAP2 SWAP1 PUSH2 0x5D7 JUMP JUMPDEST PUSH1 0x40 MLOAD DUP1 SWAP2 SUB SWAP1 RETURN JUMPDEST PUSH2 0x95 PUSH2 0x111 JUMP JUMPDEST PUSH1 0x40 MLOAD PUSH2 0xA2 SWAP2 SWAP1 PUSH2 0x5D7 JUMP JUMPDEST PUSH1 0x40 MLOAD DUP1 SWAP2 SUB SWAP1 RETURN JUMPDEST PUSH2 0xC5 PUSH1 0x4 DUP1 CALLDATASIZE SUB DUP2 ADD SWAP1 PUSH2 0xC0 SWAP2 SWAP1 PUSH2 0x697 JUMP JUMPDEST PUSH2 0x135 JUMP JUMPDEST STOP JUMPDEST PUSH32 0x0 DUP2 JUMP JUMPDEST PUSH1 0x2 PUSH1 0x0 SWAP1 SLOAD SWAP1 PUSH2 0x100 EXP SWAP1 DIV PUSH20 0xFFFFFFFFFFFFFFFFFFFFFFFFFFFFFFFFFFFFFFFF AND DUP2 JUMP JUMPDEST PUSH1 0x0 DUP1 SLOAD SWAP1 PUSH2 0x100 EXP SWAP1 DIV PUSH20 0xFFFFFFFFFFFFFFFFFFFFFFFFFFFFFFFFFFFFFFFF AND DUP2 JUMP JUMPDEST PUSH2 0x140 PUSH1 0x1 DUP4 PUSH2 0x315 JUMP JUMPDEST ISZERO PUSH2 0x180 JUMPI PUSH1 0x40 MLOAD PUSH32 0x8C379A000000000000000000000000000000000000000000000000000000000 DUP2 MSTORE PUSH1 0x4 ADD PUSH2 0x177 SWAP1 PUSH2 0x768 JUMP JUMPDEST PUSH1 0x40 MLOAD DUP1 SWAP2 SUB SWAP1 REVERT JUMPDEST PUSH2 0x1CD DUP5 DUP5 DUP1 DUP1 PUSH1 0x20 MUL PUSH1 0x20 ADD PUSH1 0x40 MLOAD SWAP1 DUP2 ADD PUSH1 0x40 MSTORE DUP1 SWAP4 SWAP3 SWAP2 SWAP1 DUP2 DUP2 MSTORE PUSH1 0x20 ADD DUP4 DUP4 PUSH1 0x20 MUL DUP1 DUP3 DUP5 CALLDATACOPY PUSH1 0x0 DUP2 DUP5 ADD MSTORE PUSH1 0x1F NOT PUSH1 0x1F DUP3 ADD AND SWAP1 POP DUP1 DUP4 ADD SWAP3 POP POP POP POP POP POP POP DUP4 DUP4 CALLER PUSH2 0x351 JUMP JUMPDEST PUSH2 0x1DA PUSH1 0x1 DUP4 PUSH1 0x1 PUSH2 0x417 JUMP JUMPDEST PUSH1 0x0 PUSH1 0x2 PUSH1 0x0 SWAP1 SLOAD SWAP1 PUSH2 0x100 EXP SWAP1 DIV PUSH20 0xFFFFFFFFFFFFFFFFFFFFFFFFFFFFFFFFFFFFFFFF AND PUSH20 0xFFFFFFFFFFFFFFFFFFFFFFFFFFFFFFFFFFFFFFFF AND PUSH4 0xA9059CBB CALLER DUP5 PUSH1 0x40 MLOAD DUP4 PUSH4 0xFFFFFFFF AND PUSH1 0xE0 SHL DUP2 MSTORE PUSH1 0x4 ADD PUSH2 0x239 SWAP3 SWAP2 SWAP1 PUSH2 0x797 JUMP JUMPDEST PUSH1 0x20 PUSH1 0x40 MLOAD DUP1 DUP4 SUB DUP2 PUSH1 0x0 DUP8 GAS CALL ISZERO DUP1 ISZERO PUSH2 0x258 JUMPI RETURNDATASIZE PUSH1 0x0 DUP1 RETURNDATACOPY RETURNDATASIZE PUSH1 0x0 REVERT JUMPDEST POP POP POP POP PUSH1 0x40 MLOAD RETURNDATASIZE PUSH1 0x1F NOT PUSH1 0x1F DUP3 ADD AND DUP3 ADD DUP1 PUSH1 0x40 MSTORE POP DUP2 ADD SWAP1 PUSH2 0x27C SWAP2 SWAP1 PUSH2 0x7F8 JUMP JUMPDEST SWAP1 POP DUP1 PUSH2 0x2BE JUMPI PUSH1 0x40 MLOAD PUSH32 0x8C379A000000000000000000000000000000000000000000000000000000000 DUP2 MSTORE PUSH1 0x4 ADD PUSH2 0x2B5 SWAP1 PUSH2 0x871 JUMP JUMPDEST PUSH1 0x40 MLOAD DUP1 SWAP2 SUB SWAP1 REVERT JUMPDEST CALLER PUSH20 0xFFFFFFFFFFFFFFFFFFFFFFFFFFFFFFFFFFFFFFFF AND PUSH32 0xD0755A9EF5A74F50D34B3503BB5B65AD71A112C001B76DFA6412C9AA4A1F43B0 DUP5 DUP5 PUSH1 0x40 MLOAD PUSH2 0x306 SWAP3 SWAP2 SWAP1 PUSH2 0x891 JUMP JUMPDEST PUSH1 0x40 MLOAD DUP1 SWAP2 SUB SWAP1 LOG2 POP POP POP POP POP JUMP JUMPDEST PUSH1 0x0 DUP1 PUSH1 0x8 DUP4 SWAP1 SHR SWAP1 POP PUSH1 0x0 PUSH1 0xFF DUP5 AND PUSH1 0x1 SWAP1 SHL SWAP1 POP PUSH1 0x0 DUP2 DUP7 PUSH1 0x0 ADD PUSH1 0x0 DUP6 DUP2 MSTORE PUSH1 0x20 ADD SWAP1 DUP2 MSTORE PUSH1 0x20 ADD PUSH1 0x0 KECCAK256 SLOAD AND EQ ISZERO SWAP3 POP POP POP SWAP3 SWAP2 POP POP JUMP JUMPDEST PUSH1 0x0 DUP2 DUP5 DUP5 PUSH1 0x40 MLOAD PUSH1 0x20 ADD PUSH2 0x368 SWAP4 SWAP3 SWAP2 SWAP1 PUSH2 0x8BA JUMP JUMPDEST PUSH1 0x40 MLOAD PUSH1 0x20 DUP2 DUP4 SUB SUB DUP2 MSTORE SWAP1 PUSH1 0x40 MSTORE DUP1 MLOAD SWAP1 PUSH1 0x20 ADD KECCAK256 PUSH1 0x40 MLOAD PUSH1 0x20 ADD PUSH2 0x38E SWAP2 SWAP1 PUSH2 0x912 JUMP JUMPDEST PUSH1 0x40 MLOAD PUSH1 0x20 DUP2 DUP4 SUB SUB DUP2 MSTORE SWAP1 PUSH1 0x40 MSTORE DUP1 MLOAD SWAP1 PUSH1 0x20 ADD KECCAK256 SWAP1 POP PUSH2 0x3D1 DUP6 PUSH32 0x0 DUP4 PUSH2 0x43C JUMP JUMPDEST PUSH2 0x410 JUMPI PUSH1 0x40 MLOAD PUSH32 0x8C379A000000000000000000000000000000000000000000000000000000000 DUP2 MSTORE PUSH1 0x4 ADD PUSH2 0x407 SWAP1 PUSH2 0x979 JUMP JUMPDEST PUSH1 0x40 MLOAD DUP1 SWAP2 SUB SWAP1 REVERT JUMPDEST POP POP POP POP POP JUMP JUMPDEST DUP1 ISZERO PUSH2 0x42C JUMPI PUSH2 0x427 DUP4 DUP4 PUSH2 0x453 JUMP JUMPDEST PUSH2 0x437 JUMP JUMPDEST PUSH2 0x436 DUP4 DUP4 PUSH2 0x491 JUMP JUMPDEST JUMPDEST POP POP POP JUMP JUMPDEST PUSH1 0x0 DUP3 PUSH2 0x449 DUP6 DUP5 PUSH2 0x4D0 JUMP JUMPDEST EQ SWAP1 POP SWAP4 SWAP3 POP POP POP JUMP JUMPDEST PUSH1 0x0 PUSH1 0x8 DUP3 SWAP1 SHR SWAP1 POP PUSH1 0x0 PUSH1 0xFF DUP4 AND PUSH1 0x1 SWAP1 SHL SWAP1 POP DUP1 DUP5 PUSH1 0x0 ADD PUSH1 0x0 DUP5 DUP2 MSTORE PUSH1 0x20 ADD SWAP1 DUP2 MSTORE PUSH1 0x20 ADD PUSH1 0x0 KECCAK256 PUSH1 0x0 DUP3 DUP3 SLOAD OR SWAP3 POP POP DUP2 SWAP1 SSTORE POP POP POP POP POP JUMP JUMPDEST PUSH1 0x0 PUSH1 0x8 DUP3 SWAP1 SHR SWAP1 POP PUSH1 0x0 PUSH1 0xFF DUP4 AND PUSH1 0x1 SWAP1 SHL SWAP1 POP DUP1 NOT DUP5 PUSH1 0x0 ADD PUSH1 0x0 DUP5 DUP2 MSTORE PUSH1 0x20 ADD SWAP1 DUP2 MSTORE PUSH1 0x20 ADD PUSH1 0x0 KECCAK256 PUSH1 0x0 DUP3 DUP3 SLOAD AND SWAP3 POP POP DUP2 SWAP1 SSTORE POP POP POP POP POP JUMP JUMPDEST PUSH1 0x0 DUP1 DUP3 SWAP1 POP PUSH1 0x0 JUMPDEST DUP5 MLOAD DUP2 LT ISZERO PUSH2 0x515 JUMPI PUSH2 0x506 DUP3 DUP7 DUP4 DUP2 MLOAD DUP2 LT PUSH2 0x4F9 JUMPI PUSH2 0x4F8 PUSH2 0x999 JUMP JUMPDEST JUMPDEST PUSH1 0x20 MUL PUSH1 0x20 ADD ADD MLOAD PUSH2 0x520 JUMP JUMPDEST SWAP2 POP DUP1 DUP1 PUSH1 0x1 ADD SWAP2 POP POP PUSH2 0x4D9 JUMP JUMPDEST POP DUP1 SWAP2 POP POP SWAP3 SWAP2 POP POP JUMP JUMPDEST PUSH1 0x0 DUP2 DUP4 LT PUSH2 0x538 JUMPI PUSH2 0x533 DUP3 DUP5 PUSH2 0x54B JUMP JUMPDEST PUSH2 0x543 JUMP JUMPDEST PUSH2 0x542 DUP4 DUP4 PUSH2 0x54B JUMP JUMPDEST JUMPDEST SWAP1 POP SWAP3 SWAP2 POP POP JUMP JUMPDEST PUSH1 0x0 DUP3 PUSH1 0x0 MSTORE DUP2 PUSH1 0x20 MSTORE PUSH1 0x40 PUSH1 0x0 KECCAK256 SWAP1 POP SWAP3 SWAP2 POP POP JUMP JUMPDEST PUSH1 0x0 DUP2 SWAP1 POP SWAP2 SWAP1 POP JUMP JUMPDEST PUSH2 0x575 DUP2 PUSH2 0x562 JUMP JUMPDEST DUP3 MSTORE POP POP JUMP JUMPDEST PUSH1 0x0 PUSH1 0x20 DUP3 ADD SWAP1 POP PUSH2 0x590 PUSH1 0x0 DUP4 ADD DUP5 PUSH2 0x56C JUMP JUMPDEST SWAP3 SWAP2 POP POP JUMP JUMPDEST PUSH1 0x0 PUSH20 0xFFFFFFFFFFFFFFFFFFFFFFFFFFFFFFFFFFFFFFFF DUP3 AND SWAP1 POP SWAP2 SWAP1 POP JUMP JUMPDEST PUSH1 0x0 PUSH2 0x5C1 DUP3 PUSH2 0x596 JUMP JUMPDEST SWAP1 POP SWAP2 SWAP1 POP JUMP JUMPDEST PUSH2 0x5D1 DUP2 PUSH2 0x5B6 JUMP JUMPDEST DUP3 MSTORE POP POP JUMP JUMPDEST PUSH1 0x0 PUSH1 0x20 DUP3 ADD SWAP1 POP PUSH2 0x5EC PUSH1 0x0 DUP4 ADD DUP5 PUSH2 0x5C8 JUMP JUMPDEST SWAP3 SWAP2 POP POP JUMP JUMPDEST PUSH1 0x0 DUP1 REVERT JUMPDEST PUSH1 0x0 DUP1 REVERT JUMPDEST PUSH1 0x0 DUP1 REVERT JUMPDEST PUSH1 0x0 DUP1 REVERT JUMPDEST PUSH1 0x0 DUP1 REVERT JUMPDEST PUSH1 0x0 DUP1 DUP4 PUSH1 0x1F DUP5 ADD SLT PUSH2 0x621 JUMPI PUSH2 0x620 PUSH2 0x5FC JUMP JUMPDEST JUMPDEST DUP3 CALLDATALOAD SWAP1 POP PUSH8 0xFFFFFFFFFFFFFFFF DUP2 GT ISZERO PUSH2 0x63E JUMPI PUSH2 0x63D PUSH2 0x601 JUMP JUMPDEST JUMPDEST PUSH1 0x20 DUP4 ADD SWAP2 POP DUP4 PUSH1 0x20 DUP3 MUL DUP4 ADD GT ISZERO PUSH2 0x65A JUMPI PUSH2 0x659 PUSH2 0x606 JUMP JUMPDEST JUMPDEST SWAP3 POP SWAP3 SWAP1 POP JUMP JUMPDEST PUSH1 0x0 DUP2 SWAP1 POP SWAP2 SWAP1 POP JUMP JUMPDEST PUSH2 0x674 DUP2 PUSH2 0x661 JUMP JUMPDEST DUP2 EQ PUSH2 0x67F JUMPI PUSH1 0x0 DUP1 REVERT JUMPDEST POP JUMP JUMPDEST PUSH1 0x0 DUP2 CALLDATALOAD SWAP1 POP PUSH2 0x691 DUP2 PUSH2 0x66B JUMP JUMPDEST SWAP3 SWAP2 POP POP JUMP JUMPDEST PUSH1 0x0 DUP1 PUSH1 0x0 DUP1 PUSH1 0x60 DUP6 DUP8 SUB SLT ISZERO PUSH2 0x6B1 JUMPI PUSH2 0x6B0 PUSH2 0x5F2 JUMP JUMPDEST JUMPDEST PUSH1 0x0 DUP6 ADD CALLDATALOAD PUSH8 0xFFFFFFFFFFFFFFFF DUP2 GT ISZERO PUSH2 0x6CF JUMPI PUSH2 0x6CE PUSH2 0x5F7 JUMP JUMPDEST JUMPDEST PUSH2 0x6DB DUP8 DUP3 DUP9 ADD PUSH2 0x60B JUMP JUMPDEST SWAP5 POP SWAP5 POP POP PUSH1 0x20 PUSH2 0x6EE DUP8 DUP3 DUP9 ADD PUSH2 0x682 JUMP JUMPDEST SWAP3 POP POP PUSH1 0x40 PUSH2 0x6FF DUP8 DUP3 DUP9 ADD PUSH2 0x682 JUMP JUMPDEST SWAP2 POP POP SWAP3 SWAP6 SWAP2 SWAP5 POP SWAP3 POP JUMP JUMPDEST PUSH1 0x0 DUP3 DUP3 MSTORE PUSH1 0x20 DUP3 ADD SWAP1 POP SWAP3 SWAP2 POP POP JUMP JUMPDEST PUSH32 0x416C726561647920636C61696D65640000000000000000000000000000000000 PUSH1 0x0 DUP3 ADD MSTORE POP JUMP JUMPDEST PUSH1 0x0 PUSH2 0x752 PUSH1 0xF DUP4 PUSH2 0x70B JUMP JUMPDEST SWAP2 POP PUSH2 0x75D DUP3 PUSH2 0x71C JUMP JUMPDEST PUSH1 0x20 DUP3 ADD SWAP1 POP SWAP2 SWAP1 POP JUMP JUMPDEST PUSH1 0x0 PUSH1 0x20 DUP3 ADD SWAP1 POP DUP2 DUP2 SUB PUSH1 0x0 DUP4 ADD MSTORE PUSH2 0x781 DUP2 PUSH2 0x745 JUMP JUMPDEST SWAP1 POP SWAP2 SWAP1 POP JUMP JUMPDEST PUSH2 0x791 DUP2 PUSH2 0x661 JUMP JUMPDEST DUP3 MSTORE POP POP JUMP JUMPDEST PUSH1 0x0 PUSH1 0x40 DUP3 ADD SWAP1 POP PUSH2 0x7AC PUSH1 0x0 DUP4 ADD DUP6 PUSH2 0x5C8 JUMP JUMPDEST PUSH2 0x7B9 PUSH1 0x20 DUP4 ADD DUP5 PUSH2 0x788 JUMP JUMPDEST SWAP4 SWAP3 POP POP POP JUMP JUMPDEST PUSH1 0x0 DUP2 ISZERO ISZERO SWAP1 POP SWAP2 SWAP1 POP JUMP JUMPDEST PUSH2 0x7D5 DUP2 PUSH2 0x7C0 JUMP JUMPDEST DUP2 EQ PUSH2 0x7E0 JUMPI PUSH1 0x0 DUP1 REVERT JUMPDEST POP JUMP JUMPDEST PUSH1 0x0 DUP2 MLOAD SWAP1 POP PUSH2 0x7F2 DUP2 PUSH2 0x7CC JUMP JUMPDEST SWAP3 SWAP2 POP POP JUMP JUMPDEST PUSH1 0x0 PUSH1 0x20 DUP3 DUP5 SUB SLT ISZERO PUSH2 0x80E JUMPI PUSH2 0x80D PUSH2 0x5F2 JUMP JUMPDEST JUMPDEST PUSH1 0x0 PUSH2 0x81C DUP5 DUP3 DUP6 ADD PUSH2 0x7E3 JUMP JUMPDEST SWAP2 POP POP SWAP3 SWAP2 POP POP JUMP JUMPDEST PUSH32 0x546F6B656E207472616E73666572206661696C65640000000000000000000000 PUSH1 0x0 DUP3 ADD MSTORE POP JUMP JUMPDEST PUSH1 0x0 PUSH2 0x85B PUSH1 0x15 DUP4 PUSH2 0x70B JUMP JUMPDEST SWAP2 POP PUSH2 0x866 DUP3 PUSH2 0x825 JUMP JUMPDEST PUSH1 0x20 DUP3 ADD SWAP1 POP SWAP2 SWAP1 POP JUMP JUMPDEST PUSH1 0x0 PUSH1 0x20 DUP3 ADD SWAP1 POP DUP2 DUP2 SUB PUSH1 0x0 DUP4 ADD MSTORE PUSH2 0x88A DUP2 PUSH2 0x84E JUMP JUMPDEST SWAP1 POP SWAP2 SWAP1 POP JUMP JUMPDEST PUSH1 0x0 PUSH1 0x40 DUP3 ADD SWAP1 POP PUSH2 0x8A6 PUSH1 0x0 DUP4 ADD DUP6 PUSH2 0x788 JUMP JUMPDEST PUSH2 0x8B3 PUSH1 0x20 DUP4 ADD DUP5 PUSH2 0x788 JUMP JUMPDEST SWAP4 SWAP3 POP POP POP JUMP JUMPDEST PUSH1 0x0 PUSH1 0x60 DUP3 ADD SWAP1 POP PUSH2 0x8CF PUSH1 0x0 DUP4 ADD DUP7 PUSH2 0x5C8 JUMP JUMPDEST PUSH2 0x8DC PUSH1 0x20 DUP4 ADD DUP6 PUSH2 0x788 JUMP JUMPDEST PUSH2 0x8E9 PUSH1 0x40 DUP4 ADD DUP5 PUSH2 0x788 JUMP JUMPDEST SWAP5 SWAP4 POP POP POP POP JUMP JUMPDEST PUSH1 0x0 DUP2 SWAP1 POP SWAP2 SWAP1 POP JUMP JUMPDEST PUSH2 0x90C PUSH2 0x907 DUP3 PUSH2 0x562 JUMP JUMPDEST PUSH2 0x8F1 JUMP JUMPDEST DUP3 MSTORE POP POP JUMP JUMPDEST PUSH1 0x0 PUSH2 0x91E DUP3 DUP5 PUSH2 0x8FB JUMP JUMPDEST PUSH1 0x20 DUP3 ADD SWAP2 POP DUP2 SWAP1 POP SWAP3 SWAP2 POP POP JUMP JUMPDEST PUSH32 0x496E76616C69642070726F6F6600000000000000000000000000000000000000 PUSH1 0x0 DUP3 ADD MSTORE POP JUMP JUMPDEST PUSH1 0x0 PUSH2 0x963 PUSH1 0xD DUP4 PUSH2 0x70B JUMP JUMPDEST SWAP2 POP PUSH2 0x96E DUP3 PUSH2 0x92D JUMP JUMPDEST PUSH1 0x20 DUP3 ADD SWAP1 POP SWAP2 SWAP1 POP JUMP JUMPDEST PUSH1 0x0 PUSH1 0x20 DUP3 ADD SWAP1 POP DUP2 DUP2 SUB PUSH1 0x0 DUP4 ADD MSTORE PUSH2 0x992 DUP2 PUSH2 0x956 JUMP JUMPDEST SWAP1 POP SWAP2 SWAP1 POP JUMP JUMPDEST PUSH32 0x4E487B7100000000000000000000000000000000000000000000000000000000 PUSH1 0x0 MSTORE PUSH1 0x32 PUSH1 0x4 MSTORE PUSH1 0x24 PUSH1 0x0 REVERT INVALID LOG2 PUSH5 0x6970667358 0x22 SLT KECCAK256 PREVRANDAO DUP6 PUSH28 0x4F303990DBDD603AB5FA7ACC5D8307AD39F471407B22F05381CF8A02 REVERT PUSH5 0x736F6C6343 STOP ADDMOD XOR STOP CALLER "
        },
        "methodIdentifiers": {
          "airdropToken()": "4d06068a",
          "claimAirDrop(bytes32[],uint256,uint256)": "e7e52036",
          "merkleRoot()": "2eb4a7ab",
          "owner()": "8da5cb5b"
        }
      }
    }
  }
}