{
  "_format": "hh-sol-artifact-1",
  "contractName": "MerkleAirdrop",
  "sourceName": "contracts/MerkleAirdrop.sol",
  "abi": [
    {
      "inputs": [
        {
          "internalType": "bytes32",
          "name": "_merkleRoot",
          "type": "bytes32"
        },
        {
          "internalType": "address",
          "name": "_tokenAddress",
          "type": "address"
        }
      ],
      "stateMutability": "nonpayable",
      "type": "constructor"
    },
    {
      "anonymous": false,
      "inputs": [
        {
          "indexed": true,
          "internalType": "address",
          "name": "claimant",
          "type": "address"
        },
        {
          "indexed": false,
          "internalType": "uint256",
          "name": "index",
          "type": "uint256"
        },
        {
          "indexed": false,
          "internalType": "uint256",
          "name": "amount",
          "type": "uint256"
        }
      ],
      "name": "AirdropClaimed",
      "type": "event"
    },
    {
      "inputs": [],
      "name": "airdropToken",
      "outputs": [
        {
          "internalType": "address",
          "name": "",
          "type": "address"
        }
      ],
      "stateMutability": "view",
      "type": "function"
    },
    {
      "inputs": [
        {
          "internalType": "bytes32[]",
          "name": "proof",
          "type": "bytes32[]"
        },
        {
          "internalType": "uint256",
          "name": "index",
          "type": "uint256"
        },
        {
          "internalType": "uint256",
          "name": "amount",
          "type": "uint256"
        }
      ],
      "name": "claimAirDrop",
      "outputs": [],
      "stateMutability": "nonpayable",
      "type": "function"
    },
    {
      "inputs": [],
      "name": "merkleRoot",
      "outputs": [
        {
          "internalType": "bytes32",
          "name": "",
          "type": "bytes32"
        }
      ],
      "stateMutability": "view",
      "type": "function"
    },
    {
      "inputs": [],
      "name": "owner",
      "outputs": [
        {
          "internalType": "address",
          "name": "",
          "type": "address"
        }
      ],
      "stateMutability": "view",
      "type": "function"
    }
  ],
  "bytecode": "0x60a060405234801561001057600080fd5b50604051610bba380380610bba8339818101604052810190610032919061015b565b336000806101000a81548173ffffffffffffffffffffffffffffffffffffffff021916908373ffffffffffffffffffffffffffffffffffffffff160217905550816080818152505080600260006101000a81548173ffffffffffffffffffffffffffffffffffffffff021916908373ffffffffffffffffffffffffffffffffffffffff160217905550505061019b565b600080fd5b6000819050919050565b6100da816100c7565b81146100e557600080fd5b50565b6000815190506100f7816100d1565b92915050565b600073ffffffffffffffffffffffffffffffffffffffff82169050919050565b6000610128826100fd565b9050919050565b6101388161011d565b811461014357600080fd5b50565b6000815190506101558161012f565b92915050565b60008060408385031215610172576101716100c2565b5b6000610180858286016100e8565b925050602061019185828601610146565b9150509250929050565b6080516109fe6101bc6000396000818160c901526103ac01526109fe6000f3fe608060405234801561001057600080fd5b506004361061004c5760003560e01c80632eb4a7ab146100515780634d06068a1461006f5780638da5cb5b1461008d578063e7e52036146100ab575b600080fd5b6100596100c7565b604051610066919061057b565b60405180910390f35b6100776100eb565b60405161008491906105d7565b60405180910390f35b610095610111565b6040516100a291906105d7565b60405180910390f35b6100c560048036038101906100c09190610697565b610135565b005b7f000000000000000000000000000000000000000000000000000000000000000081565b600260009054906101000a900473ffffffffffffffffffffffffffffffffffffffff1681565b60008054906101000a900473ffffffffffffffffffffffffffffffffffffffff1681565b610140600183610315565b15610180576040517f08c379a000000000000000000000000000000000000000000000000000000000815260040161017790610768565b60405180910390fd5b6101cd848480806020026020016040519081016040528093929190818152602001838360200280828437600081840152601f19601f82011690508083019250505050505050838333610351565b6101da6001836001610417565b6000600260009054906101000a900473ffffffffffffffffffffffffffffffffffffffff1673ffffffffffffffffffffffffffffffffffffffff1663a9059cbb33846040518363ffffffff1660e01b8152600401610239929190610797565b6020604051808303816000875af1158015610258573d6000803e3d6000fd5b505050506040513d601f19601f8201168201806040525081019061027c91906107f8565b9050806102be576040517f08c379a00000000000000000000000000000000000000000000000000000000081526004016102b590610871565b60405180910390fd5b3373ffffffffffffffffffffffffffffffffffffffff167fd0755a9ef5a74f50d34b3503bb5b65ad71a112c001b76dfa6412c9aa4a1f43b08484604051610306929190610891565b60405180910390a25050505050565b600080600883901c9050600060ff84166001901b9050600081866000016000858152602001908152602001600020541614159250505092915050565b6000818484604051602001610368939291906108ba565b6040516020818303038152906040528051906020012060405160200161038e9190610912565b6040516020818303038152906040528051906020012090506103d1857f00000000000000000000000000000000000000000000000000000000000000008361043c565b610410576040517f08c379a000000000000000000000000000000000000000000000000000000000815260040161040790610979565b60405180910390fd5b5050505050565b801561042c576104278383610453565b610437565b6104368383610491565b5b505050565b60008261044985846104d0565b1490509392505050565b6000600882901c9050600060ff83166001901b9050808460000160008481526020019081526020016000206000828254179250508190555050505050565b6000600882901c9050600060ff83166001901b905080198460000160008481526020019081526020016000206000828254169250508190555050505050565b60008082905060005b845181101561051557610506828683815181106104f9576104f8610999565b5b6020026020010151610520565b915080806001019150506104d9565b508091505092915050565b600081831061053857610533828461054b565b610543565b610542838361054b565b5b905092915050565b600082600052816020526040600020905092915050565b6000819050919050565b61057581610562565b82525050565b6000602082019050610590600083018461056c565b92915050565b600073ffffffffffffffffffffffffffffffffffffffff82169050919050565b60006105c182610596565b9050919050565b6105d1816105b6565b82525050565b60006020820190506105ec60008301846105c8565b92915050565b600080fd5b600080fd5b600080fd5b600080fd5b600080fd5b60008083601f840112610621576106206105fc565b5b8235905067ffffffffffffffff81111561063e5761063d610601565b5b60208301915083602082028301111561065a57610659610606565b5b9250929050565b6000819050919050565b61067481610661565b811461067f57600080fd5b50565b6000813590506106918161066b565b92915050565b600080600080606085870312156106b1576106b06105f2565b5b600085013567ffffffffffffffff8111156106cf576106ce6105f7565b5b6106db8782880161060b565b945094505060206106ee87828801610682565b92505060406106ff87828801610682565b91505092959194509250565b600082825260208201905092915050565b7f416c726561647920636c61696d65640000000000000000000000000000000000600082015250565b6000610752600f8361070b565b915061075d8261071c565b602082019050919050565b6000602082019050818103600083015261078181610745565b9050919050565b61079181610661565b82525050565b60006040820190506107ac60008301856105c8565b6107b96020830184610788565b9392505050565b60008115159050919050565b6107d5816107c0565b81146107e057600080fd5b50565b6000815190506107f2816107cc565b92915050565b60006020828403121561080e5761080d6105f2565b5b600061081c848285016107e3565b91505092915050565b7f546f6b656e207472616e73666572206661696c65640000000000000000000000600082015250565b600061085b60158361070b565b915061086682610825565b602082019050919050565b6000602082019050818103600083015261088a8161084e565b9050919050565b60006040820190506108a66000830185610788565b6108b36020830184610788565b9392505050565b60006060820190506108cf60008301866105c8565b6108dc6020830185610788565b6108e96040830184610788565b949350505050565b6000819050919050565b61090c61090782610562565b6108f1565b82525050565b600061091e82846108fb565b60208201915081905092915050565b7f496e76616c69642070726f6f6600000000000000000000000000000000000000600082015250565b6000610963600d8361070b565b915061096e8261092d565b602082019050919050565b6000602082019050818103600083015261099281610956565b9050919050565b7f4e487b7100000000000000000000000000000000000000000000000000000000600052603260045260246000fdfea264697066735822122044857b4f303990dbdd603ab5fa7acc5d8307ad39f471407b22f05381cf8a02fd64736f6c63430008180033",
  "linkReferences": {},
  "deployedLinkReferences": {}
}